:03000000020A51A0
:0C0A5100787FE4F6D8FD75812C020A982D
:0A0B9E003F065B4F666D7D077F6F19
:100B5400011C01011D00011E00011F0001200001F4
:050B64001100010E006C
:040B30007F057E00BF
:100B3400E4FDFCC3ED9FEC9E5015E4FBFA0BBB00F7
:0F0B4400010AEB646E4A70F50DBD00010C80E4F0
:010B5300227F
:10097300E51375F00A8485F008E51375F00A84F52C
:100983000AE51775F00A8485F009E51775F00A84FE
:10099300F50CE51B75F00A8485F00BE51B75F00A71
:1009A30084F50DAF0A7E00AD087C00AB0C7A00E540
:1009B30009752700F528E50D752900F52AE50B755E
:0409C3002B00F52CE4
:1009C7008C238D248A258B26C2B175A0FED2B1D285
:1009D700B0EF900B9E93F580C2B07F037E00120BA1
:1009E70034D2B175A0FDC2B1D2B0E52493F580C26F
:1009F700B07F03120B34D2B175A0F7C2B1D2B0E504
:100A07002693F580C2B07F03120B34D2B175A0EFE5
:100A1700C2B1D2B0E52893F580C2B07F03120B3480
:100A2700D2B175A0BFC2B1D2B0E52A93F580C2B0EA
:100A37007F03120B34D2B175A07FC2B1D2B0E52CBF
:0A0A470093F580C2B07F03020B3468
:0E0B900020900A3090FD051DE4F51CC28C2259
:090BA8002093053093FD051E2287
:100B6A0020940F3094FDE50E70047F0180027F000F
:030B7A008F0E22B9
:10080000E51D640170312091143091FDE51BC39406
:100810003B5004051B8003E4F51B120B302092149F
:100820003092FDE51BD394004004151B8003751B1B
:100830003B120B30120973E51D64027031209114D4
:100840003091FDE517C3943B500405178003E4F590
:1008500017120B302092143092FDE517D39400400C
:10086000041517800375173B120B30120973E51D31
:10087000640370312091143091FDE513C394175037
:100880000405138003E4F513120B30209214309208
:10089000FDE513D39400400415138003751317125C
:1008A0000B30120973E51D64046003020962E51F41
:1008B00075F00A8485F014E51F75F00A84F516E5D5
:1008C0002075F00A8485F015E52075F00A84F51985
:1008D000E51175F00A8485F018E51175F00A84F5C4
:1008E0001AAF167E00AD147C00AB197A00E51575C1
:1008F0002700F528E51A752900F52AE5181209C21E
:10090000E51E6401702B2091143091FDE520C39405
:100910003B500405208003E4F520120B3020921197
:100920003092FDE520D3940140041520800375200A
:100930003BE51E6402702B2091143091FDE51FC32E
:1009400094175004051F8003E4F51F120B3020920A
:10095000113092FDE51FD394014004151F800375EB
:100960001F17E51DB4050B3090FDE4F51DF51E7550
:030970001C012245
:100ADD0075890175A883758C4CE4F58A120B9012FB
:100AED000B6AE51C64017032D28CE5106414450F5D
:100AFD007022F50FF510051BE51BB43C17E4F51B33
:100B0D000517E517B43C0DE4F5170513E513B418F7
:100B1D0003E4F513120973020AE9120BA812080077
:030B2D00020AE9D0
:03000B00020B7D68
:100B7D00C0E0758C4C758A000510E5107002050FEC
:030B8D00D0E03283
:100A5D00020ADDE493A3F8E493A34003F68001F2C8
:100A6D0008DFF48029E493A3F85407240CC8C3339A
:100A7D00C4540F4420C8834004F456800146F6DF69
:100A8D00E4800B0102040810204080900B54E47E9A
:100A9D00019360BCA3FF543F30E509541FFEE4935E
:100AAD00A360010ECF54C025E060A840B8E493A325
:100ABD00FAE493A3F8E493A3C8C582C8CAC583CA50
:100ACD00F0A3C8C582C8CAC583CADFE9DEE780BE08
:010B6900008B
:00000001FF
