:03000000020800F3
:0C080000787FE4F6D8FD758120020847DF
:02091B00C10019
:03000B0002088C5C
:10088C00C0E0C0D0758CF1758AF1D28C050BE50BEC
:10089C007002050A640B450A7029E509B45006E597
:1008AC00087002C200E5097007E508B45002D200D6
:1008BC0030000605091508800415090508750A009D
:0808CC00750B00D0D0D0E03222
:1008FD00EF1FAA0670011E4A6013E4FCFDC3ED94C0
:0D090D0020EC940050EA0DBD00010C80F0BC
:01091A0022BA
:1008D400E4F509750850758901758CF0758AF0D2B4
:1008E400AFD2A9D28CC2A0AF087E001208FDD2A05C
:0908F400AF097E001208FD80EC42
:10080C000208D4E493A3F8E493A34003F68001F226
:10081C0008DFF48029E493A3F85407240CC8C333ED
:10082C00C4540F4420C8834004F456800146F6DFBC
:10083C00E4800B010204081020408090091BE47E28
:10084C00019360BCA3FF543F30E509541FFEE493B1
:10085C00A360010ECF54C025E060A840B8E493A378
:10086C00FAE493A3F8E493A3C8C582C8CAC583CAA3
:10087C00F0A3C8C582C8CAC583CADFE9DEE780BE5B
:01091D0000D9
:00000001FF
